{
  "contractName": "TaskToken",
  "abi": [
    {
      "inputs": [
        {
          "internalType": "uint256",
          "name": "_supply",
          "type": "uint256"
        },
        {
          "internalType": "uint256",
          "name": "_amountNeedtoDistribute",
          "type": "uint256"
        }
      ],
      "stateMutability": "nonpayable",
      "type": "constructor"
    },
    {
      "anonymous": false,
      "inputs": [
        {
          "indexed": true,
          "internalType": "address",
          "name": "owner",
          "type": "address"
        },
        {
          "indexed": true,
          "internalType": "address",
          "name": "spender",
          "type": "address"
        },
        {
          "indexed": false,
          "internalType": "uint256",
          "name": "value",
          "type": "uint256"
        }
      ],
      "name": "Approval",
      "type": "event"
    },
    {
      "anonymous": false,
      "inputs": [
        {
          "indexed": true,
          "internalType": "address",
          "name": "previousOwner",
          "type": "address"
        },
        {
          "indexed": true,
          "internalType": "address",
          "name": "newOwner",
          "type": "address"
        }
      ],
      "name": "OwnershipTransferred",
      "type": "event"
    },
    {
      "anonymous": false,
      "inputs": [
        {
          "indexed": true,
          "internalType": "address",
          "name": "from",
          "type": "address"
        },
        {
          "indexed": true,
          "internalType": "address",
          "name": "to",
          "type": "address"
        },
        {
          "indexed": false,
          "internalType": "uint256",
          "name": "value",
          "type": "uint256"
        }
      ],
      "name": "Transfer",
      "type": "event"
    },
    {
      "anonymous": false,
      "inputs": [
        {
          "indexed": false,
          "internalType": "address",
          "name": "from",
          "type": "address"
        },
        {
          "indexed": false,
          "internalType": "address",
          "name": "to",
          "type": "address"
        },
        {
          "indexed": false,
          "internalType": "uint256",
          "name": "amount",
          "type": "uint256"
        }
      ],
      "name": "amountDistribution",
      "type": "event"
    },
    {
      "anonymous": false,
      "inputs": [
        {
          "indexed": false,
          "internalType": "address",
          "name": "from",
          "type": "address"
        },
        {
          "indexed": false,
          "internalType": "address",
          "name": "to",
          "type": "address"
        },
        {
          "indexed": false,
          "internalType": "uint256",
          "name": "amount",
          "type": "uint256"
        }
      ],
      "name": "transferTokens",
      "type": "event"
    },
    {
      "inputs": [],
      "name": "amountNeedtoDistribute",
      "outputs": [
        {
          "internalType": "uint256",
          "name": "",
          "type": "uint256"
        }
      ],
      "stateMutability": "view",
      "type": "function",
      "constant": true
    },
    {
      "inputs": [],
      "name": "decimals",
      "outputs": [
        {
          "internalType": "uint8",
          "name": "",
          "type": "uint8"
        }
      ],
      "stateMutability": "view",
      "type": "function",
      "constant": true
    },
    {
      "inputs": [],
      "name": "name",
      "outputs": [
        {
          "internalType": "string",
          "name": "",
          "type": "string"
        }
      ],
      "stateMutability": "view",
      "type": "function",
      "constant": true
    },
    {
      "inputs": [],
      "name": "owner",
      "outputs": [
        {
          "internalType": "address",
          "name": "",
          "type": "address"
        }
      ],
      "stateMutability": "view",
      "type": "function",
      "constant": true
    },
    {
      "inputs": [],
      "name": "ownerAddress",
      "outputs": [
        {
          "internalType": "address",
          "name": "",
          "type": "address"
        }
      ],
      "stateMutability": "view",
      "type": "function",
      "constant": true
    },
    {
      "inputs": [],
      "name": "renounceOwnership",
      "outputs": [],
      "stateMutability": "nonpayable",
      "type": "function"
    },
    {
      "inputs": [],
      "name": "symbol",
      "outputs": [
        {
          "internalType": "string",
          "name": "",
          "type": "string"
        }
      ],
      "stateMutability": "view",
      "type": "function",
      "constant": true
    },
    {
      "inputs": [],
      "name": "totalSupply",
      "outputs": [
        {
          "internalType": "uint256",
          "name": "",
          "type": "uint256"
        }
      ],
      "stateMutability": "view",
      "type": "function",
      "constant": true
    },
    {
      "inputs": [
        {
          "internalType": "address",
          "name": "newOwner",
          "type": "address"
        }
      ],
      "name": "transferOwnership",
      "outputs": [],
      "stateMutability": "nonpayable",
      "type": "function"
    },
    {
      "inputs": [
        {
          "internalType": "uint256",
          "name": "_mintAmount",
          "type": "uint256"
        }
      ],
      "name": "mintMoreTokens",
      "outputs": [],
      "stateMutability": "nonpayable",
      "type": "function"
    },
    {
      "inputs": [
        {
          "internalType": "address",
          "name": "_owner",
          "type": "address"
        }
      ],
      "name": "balanceOf",
      "outputs": [
        {
          "internalType": "uint256",
          "name": "",
          "type": "uint256"
        }
      ],
      "stateMutability": "view",
      "type": "function",
      "constant": true
    },
    {
      "inputs": [
        {
          "internalType": "address",
          "name": "_owner",
          "type": "address"
        },
        {
          "internalType": "address",
          "name": "_spender",
          "type": "address"
        }
      ],
      "name": "allowance",
      "outputs": [
        {
          "internalType": "uint256",
          "name": "",
          "type": "uint256"
        }
      ],
      "stateMutability": "view",
      "type": "function",
      "constant": true
    },
    {
      "inputs": [
        {
          "internalType": "address",
          "name": "spender",
          "type": "address"
        },
        {
          "internalType": "uint256",
          "name": "addedValue",
          "type": "uint256"
        }
      ],
      "name": "increaseAllowance",
      "outputs": [
        {
          "internalType": "bool",
          "name": "",
          "type": "bool"
        }
      ],
      "stateMutability": "nonpayable",
      "type": "function"
    },
    {
      "inputs": [
        {
          "internalType": "address",
          "name": "spender",
          "type": "address"
        },
        {
          "internalType": "uint256",
          "name": "subtractedValue",
          "type": "uint256"
        }
      ],
      "name": "decreaseAllowance",
      "outputs": [
        {
          "internalType": "bool",
          "name": "",
          "type": "bool"
        }
      ],
      "stateMutability": "nonpayable",
      "type": "function"
    },
    {
      "inputs": [
        {
          "internalType": "address",
          "name": "recipient",
          "type": "address"
        },
        {
          "internalType": "uint256",
          "name": "amount",
          "type": "uint256"
        }
      ],
      "name": "transfer",
      "outputs": [
        {
          "internalType": "bool",
          "name": "",
          "type": "bool"
        }
      ],
      "stateMutability": "nonpayable",
      "type": "function"
    },
    {
      "inputs": [
        {
          "internalType": "address",
          "name": "sender",
          "type": "address"
        },
        {
          "internalType": "address",
          "name": "recipient",
          "type": "address"
        },
        {
          "internalType": "uint256",
          "name": "amount",
          "type": "uint256"
        }
      ],
      "name": "transferFrom",
      "outputs": [
        {
          "internalType": "bool",
          "name": "",
          "type": "bool"
        }
      ],
      "stateMutability": "nonpayable",
      "type": "function"
    },
    {
      "inputs": [
        {
          "internalType": "address",
          "name": "spender",
          "type": "address"
        },
        {
          "internalType": "uint256",
          "name": "amount",
          "type": "uint256"
        }
      ],
      "name": "approve",
      "outputs": [
        {
          "internalType": "bool",
          "name": "",
          "type": "bool"
        }
      ],
      "stateMutability": "nonpayable",
      "type": "function"
    },
    {
      "inputs": [
        {
          "internalType": "uint256",
          "name": "_amount",
          "type": "uint256"
        },
        {
          "internalType": "uint256",
          "name": "percentage",
          "type": "uint256"
        }
      ],
      "name": "calculatepercentage",
      "outputs": [
        {
          "internalType": "uint256",
          "name": "",
          "type": "uint256"
        }
      ],
      "stateMutability": "pure",
      "type": "function",
      "constant": true
    },
    {
      "inputs": [
        {
          "internalType": "address[]",
          "name": "_userAddress",
          "type": "address[]"
        }
      ],
      "name": "distributeTollAll",
      "outputs": [],
      "stateMutability": "nonpayable",
      "type": "function"
    }
  ],
  "bytecode": "0x60806040523480156200001157600080fd5b5060405162003005380380620030058339818101604052810190620000379190620002de565b6000620000496200029660201b60201c565b9050806000806101000a81548173ffffffffffffffffffffffffffffffffffffffff021916908373ffffffffffffffffffffffffffffffffffffffff1602179055508073ffffffffffffffffffffffffffffffffffffffff16600073ffffffffffffffffffffffffffffffffffffffff167f8be0079c531659141344cd1fd0a4f28419497f9722a3daafe3b4186f6b6457e060405160405180910390a350808210156200012d576040517f08c379a00000000000000000000000000000000000000000000000000000000081526004016200012490620003d2565b60405180910390fd5b6040518060400160405280600981526020017f5461736b546f6b656e00000000000000000000000000000000000000000000008152506002908162000173919062000664565b506040518060400160405280600481526020017f5441534b0000000000000000000000000000000000000000000000000000000081525060039081620001ba919062000664565b506012600460006101000a81548160ff021916908360ff160217905550806008819055508160058190555033600960006101000a81548173ffffffffffffffffffffffffffffffffffffffff021916908373ffffffffffffffffffffffffffffffffffffffff16021790555060055460066000600960009054906101000a900473ffffffffffffffffffffffffffffffffffffffff1673ffffffffffffffffffffffffffffffffffffffff1673ffffffffffffffffffffffffffffffffffffffff1681526020019081526020016000208190555050506200074b565b600033905090565b600080fd5b6000819050919050565b620002b881620002a3565b8114620002c457600080fd5b50565b600081519050620002d881620002ad565b92915050565b60008060408385031215620002f857620002f76200029e565b5b60006200030885828601620002c7565b92505060206200031b85828601620002c7565b9150509250929050565b600082825260208201905092915050565b7f45524332303a20537570706c69657220416d6d6f756e742073686f756c64206260008201527f6520657175616c206f722067726561746572207468656e20616d6f756e74204e60208201527f65656420746f2044697374726962757465000000000000000000000000000000604082015250565b6000620003ba60518362000325565b9150620003c78262000336565b606082019050919050565b60006020820190508181036000830152620003ed81620003ab565b9050919050565b600081519050919050565b7f4e487b7100000000000000000000000000000000000000000000000000000000600052604160045260246000fd5b7f4e487b7100000000000000000000000000000000000000000000000000000000600052602260045260246000fd5b600060028204905060018216806200047657607f821691505b6020821081036200048c576200048b6200042e565b5b50919050565b60008190508160005260206000209050919050565b60006020601f8301049050919050565b600082821b905092915050565b600060088302620004f67fffffffffffffffffffffffffffffffffffffffffffffffffffffffffffffffff82620004b7565b620005028683620004b7565b95508019841693508086168417925050509392505050565b6000819050919050565b6000620005456200053f6200053984620002a3565b6200051a565b620002a3565b9050919050565b6000819050919050565b620005618362000524565b6200057962000570826200054c565b848454620004c4565b825550505050565b600090565b6200059062000581565b6200059d81848462000556565b505050565b5b81811015620005c557620005b960008262000586565b600181019050620005a3565b5050565b601f8211156200061457620005de8162000492565b620005e984620004a7565b81016020851015620005f9578190505b620006116200060885620004a7565b830182620005a2565b50505b505050565b600082821c905092915050565b6000620006396000198460080262000619565b1980831691505092915050565b600062000654838362000626565b9150826002028217905092915050565b6200066f82620003f4565b67ffffffffffffffff8111156200068b576200068a620003ff565b5b6200069782546200045d565b620006a4828285620005c9565b600060209050601f831160018114620006dc5760008415620006c7578287015190505b620006d3858262000646565b86555062000743565b601f198416620006ec8662000492565b60005b828110156200071657848901518255600182019150602085019450602081019050620006ef565b8683101562000736578489015162000732601f89168262000626565b8355505b6001600288020188555050505b505050505050565b6128aa806200075b6000396000f3fe608060405234801561001057600080fd5b50600436106101215760003560e01c80638da5cb5b116100ad578063abcf841f11610071578063abcf841f14610334578063c24cfff614610350578063dd62ed3e1461036e578063e1dc4f4b1461039e578063f2fde38b146103ba57610121565b80638da5cb5b1461027a5780638f84aa091461029857806395d89b41146102b6578063a457c2d7146102d4578063a9059cbb1461030457610121565b806323b872dd116100f457806323b872dd146101c2578063313ce567146101f2578063395093511461021057806370a0823114610240578063715018a61461027057610121565b8063016d5e391461012657806306fdde0314610156578063095ea7b31461017457806318160ddd146101a4575b600080fd5b610140600480360381019061013b9190611b98565b6103d6565b60405161014d9190611be7565b60405180910390f35b61015e6103f8565b60405161016b9190611c92565b60405180910390f35b61018e60048036038101906101899190611d12565b610486565b60405161019b9190611d6d565b60405180910390f35b6101ac6104a9565b6040516101b99190611be7565b60405180910390f35b6101dc60048036038101906101d79190611d88565b6104af565b6040516101e99190611d6d565b60405180910390f35b6101fa61083e565b6040516102079190611df7565b60405180910390f35b61022a60048036038101906102259190611d12565b610851565b6040516102379190611d6d565b60405180910390f35b61025a60048036038101906102559190611e12565b6108f6565b6040516102679190611be7565b60405180910390f35b61027861093f565b005b610282610a92565b60405161028f9190611e4e565b60405180910390f35b6102a0610abb565b6040516102ad9190611e4e565b60405180910390f35b6102be610ae1565b6040516102cb9190611c92565b60405180910390f35b6102ee60048036038101906102e99190611d12565b610b6f565b6040516102fb9190611d6d565b60405180910390f35b61031e60048036038101906103199190611d12565b610c5c565b60405161032b9190611d6d565b60405180910390f35b61034e60048036038101906103499190611fb1565b610e2a565b005b610358610f01565b6040516103659190611be7565b60405180910390f35b61038860048036038101906103839190611ffa565b610f07565b6040516103959190611be7565b60405180910390f35b6103b860048036038101906103b3919061203a565b610f8e565b005b6103d460048036038101906103cf9190611e12565b6110b7565b005b6000606482846103e69190612096565b6103f0919061211f565b905092915050565b600280546104059061217f565b80601f01602080910402602001604051908101604052809291908181526020018280546104319061217f565b801561047e5780601f106104535761010080835404028352916020019161047e565b820191906000526020600020905b81548152906001019060200180831161046157829003601f168201915b505050505081565b600080610491611278565b905061049e818585611280565b600191505092915050565b60055481565b6000838383600073ffffffffffffffffffffffffffffffffffffffff168373ffffffffffffffffffffffffffffffffffffffff1603610523576040517f08c379a000000000000000000000000000000000000000000000000000000000815260040161051a90612222565b60405180910390fd5b600073ffffffffffffffffffffffffffffffffffffffff168273ffffffffffffffffffffffffffffffffffffffff1603610592576040517f08c379a0000000000000000000000000000000000000000000000000000000008152600401610589906122b4565b60405180910390fd5b80600660008573ffffffffffffffffffffffffffffffffffffffff1673ffffffffffffffffffffffffffffffffffffffff168152602001908152602001600020541015610614576040517f08c379a000000000000000000000000000000000000000000000000000000000815260040161060b90612346565b60405180910390fd5b60008111610657576040517f08c379a000000000000000000000000000000000000000000000000000000000815260040161064e906123b2565b60405180910390fd5b84600760008973ffffffffffffffffffffffffffffffffffffffff1673ffffffffffffffffffffffffffffffffffffffff16815260200190815260200160002060003373ffffffffffffffffffffffffffffffffffffffff1673ffffffffffffffffffffffffffffffffffffffff168152602001908152602001600020541015610716576040517f08c379a000000000000000000000000000000000000000000000000000000000815260040161070d9061241e565b60405180910390fd5b6107a585600760008a73ffffffffffffffffffffffffffffffffffffffff1673ffffffffffffffffffffffffffffffffffffffff16815260200190815260200160002060003373ffffffffffffffffffffffffffffffffffffffff1673ffffffffffffffffffffffffffffffffffffffff1681526020019081526020016000205461144990919063ffffffff16565b600760008973ffffffffffffffffffffffffffffffffffffffff1673ffffffffffffffffffffffffffffffffffffffff16815260200190815260200160002060003373ffffffffffffffffffffffffffffffffffffffff1673ffffffffffffffffffffffffffffffffffffffff16815260200190815260200160002081905550610830878787611493565b600193505050509392505050565b600460009054906101000a900460ff1681565b60006108ec61085e611278565b8484600760003373ffffffffffffffffffffffffffffffffffffffff1673ffffffffffffffffffffffffffffffffffffffff16815260200190815260200160002060008873ffffffffffffffffffffffffffffffffffffffff1673ffffffffffffffffffffffffffffffffffffffff168152602001908152602001600020546108e7919061243e565b611280565b6001905092915050565b6000600660008373ffffffffffffffffffffffffffffffffffffffff1673ffffffffffffffffffffffffffffffffffffffff168152602001908152602001600020549050919050565b610947611278565b73ffffffffffffffffffffffffffffffffffffffff1660008054906101000a900473ffffffffffffffffffffffffffffffffffffffff1673ffffffffffffffffffffffffffffffffffffffff16146109d4576040517f08c379a00000000000000000000000000000000000000000000000000000000081526004016109cb906124be565b60405180910390fd5b600073ffffffffffffffffffffffffffffffffffffffff1660008054906101000a900473ffffffffffffffffffffffffffffffffffffffff1673ffffffffffffffffffffffffffffffffffffffff167f8be0079c531659141344cd1fd0a4f28419497f9722a3daafe3b4186f6b6457e060405160405180910390a360008060006101000a81548173ffffffffffffffffffffffffffffffffffffffff021916908373ffffffffffffffffffffffffffffffffffffffff160217905550565b60008060009054906101000a900473ffffffffffffffffffffffffffffffffffffffff16905090565b600960009054906101000a900473ffffffffffffffffffffffffffffffffffffffff1681565b60038054610aee9061217f565b80601f0160208091040260200160405190810160405280929190818152602001828054610b1a9061217f565b8015610b675780601f10610b3c57610100808354040283529160200191610b67565b820191906000526020600020905b815481529060010190602001808311610b4a57829003601f168201915b505050505081565b600080600760003373ffffffffffffffffffffffffffffffffffffffff1673ffffffffffffffffffffffffffffffffffffffff16815260200190815260200160002060008573ffffffffffffffffffffffffffffffffffffffff1673ffffffffffffffffffffffffffffffffffffffff16815260200190815260200160002054905082811015610c34576040517f08c379a0000000000000000000000000000000000000000000000000000000008152600401610c2b90612550565b60405180910390fd5b610c51610c3f611278565b858584610c4c9190612570565b611280565b600191505092915050565b6000610c66611278565b8383600073ffffffffffffffffffffffffffffffffffffffff168373ffffffffffffffffffffffffffffffffffffffff1603610cd7576040517f08c379a0000000000000000000000000000000000000000000000000000000008152600401610cce90612222565b60405180910390fd5b600073ffffffffffffffffffffffffffffffffffffffff168273ffffffffffffffffffffffffffffffffffffffff1603610d46576040517f08c379a0000000000000000000000000000000000000000000000000000000008152600401610d3d906122b4565b60405180910390fd5b80600660008573ffffffffffffffffffffffffffffffffffffffff1673ffffffffffffffffffffffffffffffffffffffff168152602001908152602001600020541015610dc8576040517f08c379a0000000000000000000000000000000000000000000000000000000008152600401610dbf90612346565b60405180910390fd5b60008111610e0b576040517f08c379a0000000000000000000000000000000000000000000000000000000008152600401610e02906123b2565b60405180910390fd5b610e1d610e16611278565b8787611493565b6001935050505092915050565b610e32611278565b73ffffffffffffffffffffffffffffffffffffffff1660008054906101000a900473ffffffffffffffffffffffffffffffffffffffff1673ffffffffffffffffffffffffffffffffffffffff1614610ebf576040517f08c379a0000000000000000000000000000000000000000000000000000000008152600401610eb6906124be565b60405180910390fd5b6000815190506000610ed28260196103d6565b9050610ede8382611508565b610ee883826115e0565b610ef283826116c8565b610efc83826117bc565b505050565b60085481565b6000600760008473ffffffffffffffffffffffffffffffffffffffff1673ffffffffffffffffffffffffffffffffffffffff16815260200190815260200160002060008373ffffffffffffffffffffffffffffffffffffffff1673ffffffffffffffffffffffffffffffffffffffff16815260200190815260200160002054905092915050565b610f96611278565b73ffffffffffffffffffffffffffffffffffffffff1660008054906101000a900473ffffffffffffffffffffffffffffffffffffffff1673ffffffffffffffffffffffffffffffffffffffff1614611023576040517f08c379a000000000000000000000000000000000000000000000000000000000815260040161101a906124be565b60405180910390fd5b8060066000600960009054906101000a900473ffffffffffffffffffffffffffffffffffffffff1673ffffffffffffffffffffffffffffffffffffffff1673ffffffffffffffffffffffffffffffffffffffff1681526020019081526020016000206000828254611094919061243e565b9250508190555080600560008282546110ad919061243e565b9250508190555050565b6110bf611278565b73ffffffffffffffffffffffffffffffffffffffff1660008054906101000a900473ffffffffffffffffffffffffffffffffffffffff1673ffffffffffffffffffffffffffffffffffffffff161461114c576040517f08c379a0000000000000000000000000000000000000000000000000000000008152600401611143906124be565b60405180910390fd5b600073ffffffffffffffffffffffffffffffffffffffff168173ffffffffffffffffffffffffffffffffffffffff16036111bb576040517f08c379a00000000000000000000000000000000000000000000000000000000081526004016111b290612616565b60405180910390fd5b8073ffffffffffffffffffffffffffffffffffffffff1660008054906101000a900473ffffffffffffffffffffffffffffffffffffffff1673ffffffffffffffffffffffffffffffffffffffff167f8be0079c531659141344cd1fd0a4f28419497f9722a3daafe3b4186f6b6457e060405160405180910390a3806000806101000a81548173ffffffffffffffffffffffffffffffffffffffff021916908373ffffffffffffffffffffffffffffffffffffffff16021790555050565b600033905090565b600073ffffffffffffffffffffffffffffffffffffffff168373ffffffffffffffffffffffffffffffffffffffff16036112ef576040517f08c379a00000000000000000000000000000000000000000000000000000000081526004016112e6906126a8565b60405180910390fd5b600073ffffffffffffffffffffffffffffffffffffffff168273ffffffffffffffffffffffffffffffffffffffff160361135e576040517f08c379a00000000000000000000000000000000000000000000000000000000081526004016113559061273a565b60405180910390fd5b80600760008573ffffffffffffffffffffffffffffffffffffffff1673ffffffffffffffffffffffffffffffffffffffff16815260200190815260200160002060008473ffffffffffffffffffffffffffffffffffffffff1673ffffffffffffffffffffffffffffffffffffffff168152602001908152602001600020819055508173ffffffffffffffffffffffffffffffffffffffff168373ffffffffffffffffffffffffffffffffffffffff167f8c5be1e5ebec7d5bd14f71427d1e84f3dd0314c0f7b2291e5b200ac8c7c3b9258360405161143c9190611be7565b60405180910390a3505050565b600061148b83836040518060400160405280601e81526020017f536166654d6174683a207375627472616374696f6e206f766572666c6f7700008152506118b0565b905092915050565b61149e838383611914565b8173ffffffffffffffffffffffffffffffffffffffff168373ffffffffffffffffffffffffffffffffffffffff167fddf252ad1be2c89b69c2b068fc378daa952ba7f163c4a11628f55a4df523b3ef836040516114fb9190611be7565b60405180910390a3505050565b600061151760085460286103d6565b9050600061152e8383611a4390919063ffffffff16565b90506000806001856115409190612570565b90505b808210156115d857611570338784815181106115625761156161275a565b5b602002602001015185611914565b7f30539db766605bdf74c013892ae414ee324ae45398125ef1e07817b67f2e2284338784815181106115a5576115a461275a565b5b6020026020010151856040516115bd93929190612789565b60405180910390a181806115d0906127c0565b925050611543565b505050505050565b60006115ef600854601e6103d6565b905060006116068383611a4390919063ffffffff16565b905060008390506000600160028661161e9190612096565b6116289190612570565b90505b808210156116c0576116583387848151811061164a5761164961275a565b5b602002602001015185611914565b7f30539db766605bdf74c013892ae414ee324ae45398125ef1e07817b67f2e22843387848151811061168d5761168c61275a565b5b6020026020010151856040516116a593929190612789565b60405180910390a181806116b8906127c0565b92505061162b565b505050505050565b60006116d760085460146103d6565b905060006116ee8383611a4390919063ffffffff16565b905060006002846116ff9190612096565b9050600060016003866117129190612096565b61171c9190612570565b90505b808210156117b45761174c3387848151811061173e5761173d61275a565b5b602002602001015185611914565b7f30539db766605bdf74c013892ae414ee324ae45398125ef1e07817b67f2e2284338784815181106117815761178061275a565b5b60200260200101518560405161179993929190612789565b60405180910390a181806117ac906127c0565b92505061171f565b505050505050565b60006117cb600854600a6103d6565b905060006117e28383611a4390919063ffffffff16565b905060006003846117f39190612096565b9050600060016004866118069190612096565b6118109190612570565b90505b808210156118a857611840338784815181106118325761183161275a565b5b602002602001015185611914565b7f30539db766605bdf74c013892ae414ee324ae45398125ef1e07817b67f2e2284338784815181106118755761187461275a565b5b60200260200101518560405161188d93929190612789565b60405180910390a181806118a0906127c0565b925050611813565b505050505050565b60008383111582906118f8576040517f08c379a00000000000000000000000000000000000000000000000000000000081526004016118ef9190611c92565b60405180910390fd5b50600083856119079190612570565b9050809150509392505050565b61196681600660008673ffffffffffffffffffffffffffffffffffffffff1673ffffffffffffffffffffffffffffffffffffffff1681526020019081526020016000205461144990919063ffffffff16565b600660008573ffffffffffffffffffffffffffffffffffffffff1673ffffffffffffffffffffffffffffffffffffffff168152602001908152602001600020819055506119fb81600660008573ffffffffffffffffffffffffffffffffffffffff1673ffffffffffffffffffffffffffffffffffffffff16815260200190815260200160002054611a8d90919063ffffffff16565b600660008473ffffffffffffffffffffffffffffffffffffffff1673ffffffffffffffffffffffffffffffffffffffff16815260200190815260200160002081905550505050565b6000611a8583836040518060400160405280601a81526020017f536166654d6174683a206469766973696f6e206279207a65726f000000000000815250611aeb565b905092915050565b6000808284611a9c919061243e565b905083811015611ae1576040517f08c379a0000000000000000000000000000000000000000000000000000000008152600401611ad890612854565b60405180910390fd5b8091505092915050565b60008083118290611b32576040517f08c379a0000000000000000000000000000000000000000000000000000000008152600401611b299190611c92565b60405180910390fd5b5060008385611b41919061211f565b9050809150509392505050565b6000604051905090565b600080fd5b600080fd5b6000819050919050565b611b7581611b62565b8114611b8057600080fd5b50565b600081359050611b9281611b6c565b92915050565b60008060408385031215611baf57611bae611b58565b5b6000611bbd85828601611b83565b9250506020611bce85828601611b83565b9150509250929050565b611be181611b62565b82525050565b6000602082019050611bfc6000830184611bd8565b92915050565b600081519050919050565b600082825260208201905092915050565b60005b83811015611c3c578082015181840152602081019050611c21565b60008484015250505050565b6000601f19601f8301169050919050565b6000611c6482611c02565b611c6e8185611c0d565b9350611c7e818560208601611c1e565b611c8781611c48565b840191505092915050565b60006020820190508181036000830152611cac8184611c59565b905092915050565b600073ffffffffffffffffffffffffffffffffffffffff82169050919050565b6000611cdf82611cb4565b9050919050565b611cef81611cd4565b8114611cfa57600080fd5b50565b600081359050611d0c81611ce6565b92915050565b60008060408385031215611d2957611d28611b58565b5b6000611d3785828601611cfd565b9250506020611d4885828601611b83565b9150509250929050565b60008115159050919050565b611d6781611d52565b82525050565b6000602082019050611d826000830184611d5e565b92915050565b600080600060608486031215611da157611da0611b58565b5b6000611daf86828701611cfd565b9350506020611dc086828701611cfd565b9250506040611dd186828701611b83565b9150509250925092565b600060ff82169050919050565b611df181611ddb565b82525050565b6000602082019050611e0c6000830184611de8565b92915050565b600060208284031215611e2857611e27611b58565b5b6000611e3684828501611cfd565b91505092915050565b611e4881611cd4565b82525050565b6000602082019050611e636000830184611e3f565b92915050565b600080fd5b7f4e487b7100000000000000000000000000000000000000000000000000000000600052604160045260246000fd5b611ea682611c48565b810181811067ffffffffffffffff82111715611ec557611ec4611e6e565b5b80604052505050565b6000611ed8611b4e565b9050611ee48282611e9d565b919050565b600067ffffffffffffffff821115611f0457611f03611e6e565b5b602082029050602081019050919050565b600080fd5b6000611f2d611f2884611ee9565b611ece565b90508083825260208201905060208402830185811115611f5057611f4f611f15565b5b835b81811015611f795780611f658882611cfd565b845260208401935050602081019050611f52565b5050509392505050565b600082601f830112611f9857611f97611e69565b5b8135611fa8848260208601611f1a565b91505092915050565b600060208284031215611fc757611fc6611b58565b5b600082013567ffffffffffffffff811115611fe557611fe4611b5d565b5b611ff184828501611f83565b91505092915050565b6000806040838503121561201157612010611b58565b5b600061201f85828601611cfd565b925050602061203085828601611cfd565b9150509250929050565b6000602082840312156120505761204f611b58565b5b600061205e84828501611b83565b91505092915050565b7f4e487b7100000000000000000000000000000000000000000000000000000000600052601160045260246000fd5b60006120a182611b62565b91506120ac83611b62565b9250817fffffffffffffffffffffffffffffffffffffffffffffffffffffffffffffffff04831182151516156120e5576120e4612067565b5b828202905092915050565b7f4e487b7100000000000000000000000000000000000000000000000000000000600052601260045260246000fd5b600061212a82611b62565b915061213583611b62565b925082612145576121446120f0565b5b828204905092915050565b7f4e487b7100000000000000000000000000000000000000000000000000000000600052602260045260246000fd5b6000600282049050600182168061219757607f821691505b6020821081036121aa576121a9612150565b5b50919050565b7f45524332303a207472616e736665722066726f6d20746865207a65726f20616460008201527f6472657373000000000000000000000000000000000000000000000000000000602082015250565b600061220c602583611c0d565b9150612217826121b0565b604082019050919050565b6000602082019050818103600083015261223b816121ff565b9050919050565b7f45524332303a207472616e7366657220746f20746865207a65726f206164647260008201527f6573730000000000000000000000000000000000000000000000000000000000602082015250565b600061229e602383611c0d565b91506122a982612242565b604082019050919050565b600060208201905081810360008301526122cd81612291565b9050919050565b7f42455032303a20757365722062616c616e636520697320696e7375666669636960008201527f656e740000000000000000000000000000000000000000000000000000000000602082015250565b6000612330602383611c0d565b915061233b826122d4565b604082019050919050565b6000602082019050818103600083015261235f81612323565b9050919050565b7f42455032303a20616d6f756e742063616e206e6f74206265207a65726f000000600082015250565b600061239c601d83611c0d565b91506123a782612366565b602082019050919050565b600060208201905081810360008301526123cb8161238f565b9050919050565b7f42455032303a20616d6f756e74206e6f7420617070726f766564000000000000600082015250565b6000612408601a83611c0d565b9150612413826123d2565b602082019050919050565b60006020820190508181036000830152612437816123fb565b9050919050565b600061244982611b62565b915061245483611b62565b925082820190508082111561246c5761246b612067565b5b92915050565b7f4f776e61626c653a2063616c6c6572206973206e6f7420746865206f776e6572600082015250565b60006124a8602083611c0d565b91506124b382612472565b602082019050919050565b600060208201905081810360008301526124d78161249b565b9050919050565b7f45524332303a2064656372656173656420616c6c6f77616e63652062656c6f7760008201527f207a65726f000000000000000000000000000000000000000000000000000000602082015250565b600061253a602583611c0d565b9150612545826124de565b604082019050919050565b600060208201905081810360008301526125698161252d565b9050919050565b600061257b82611b62565b915061258683611b62565b925082820390508181111561259e5761259d612067565b5b92915050565b7f4f776e61626c653a206e6577206f776e657220697320746865207a65726f206160008201527f6464726573730000000000000000000000000000000000000000000000000000602082015250565b6000612600602683611c0d565b915061260b826125a4565b604082019050919050565b6000602082019050818103600083015261262f816125f3565b9050919050565b7f45524332303a20617070726f76652066726f6d20746865207a65726f2061646460008201527f7265737300000000000000000000000000000000000000000000000000000000602082015250565b6000612692602483611c0d565b915061269d82612636565b604082019050919050565b600060208201905081810360008301526126c181612685565b9050919050565b7f45524332303a20617070726f766520746f20746865207a65726f20616464726560008201527f7373000000000000000000000000000000000000000000000000000000000000602082015250565b6000612724602283611c0d565b915061272f826126c8565b604082019050919050565b6000602082019050818103600083015261275381612717565b9050919050565b7f4e487b7100000000000000000000000000000000000000000000000000000000600052603260045260246000fd5b600060608201905061279e6000830186611e3f565b6127ab6020830185611e3f565b6127b86040830184611bd8565b949350505050565b60006127cb82611b62565b91507fffffffffffffffffffffffffffffffffffffffffffffffffffffffffffffffff82036127fd576127fc612067565b5b600182019050919050565b7f536166654d6174683a206164646974696f6e206f766572666c6f770000000000600082015250565b600061283e601b83611c0d565b915061284982612808565b602082019050919050565b6000602082019050818103600083015261286d81612831565b905091905056fea2646970667358221220b2008d56d2a2fa4d46e021db2953a1600a7f08aeb4be6c3bdbb57c368206d8e564736f6c63430008100033",
  "immutableReferences": {},
  "source": "/**\n *Submitted for verification at polygonscan.com on 2022-07-07\n*/\n\n/**\n *Submitted for verification at polygonscan.com on 2022-06-29\n*/\n\n/**\n *Submitted for verification at polygonscan.com on 2022-06-22\n*/\n\npragma solidity ^0.8.4;\n\n//SPDX-License-Identifier: MIT Licensed\n\n// Bep20 standards for token creation\n\n interface IERC20 {\n\n    function totalSupply() external view returns (uint256);\n\n    /**\n     * @dev Returns the amount of tokens owned by `account`.\n     */\n    function balanceOf(address account) external view returns (uint256);\n\n    /**\n     * @dev Moves `amount` tokens from the caller's account to `recipient`.\n     *\n     * Returns a boolean value indicating whether the operation succeeded.\n     *\n     * Emits a {Transfer} event.\n     */\n    function transfer(address recipient, uint256 amount) external returns (bool);\n\n    /**\n     * @dev Returns the remaining number of tokens that `spender` will be\n     * allowed to spend on behalf of `owner` through {transferFrom}. This is\n     * zero by default.\n     *\n     * This value changes when {approve} or {transferFrom} are called.\n     */\n    function allowance(address owner, address spender) external view returns (uint256);\n\n    /**\n     * @dev Sets `amount` as the allowance of `spender` over the caller's tokens.\n     *\n     * Returns a boolean value indicating whether the operation succeeded.\n     *\n     * IMPORTANT: Beware that changing an allowance with this method brings the risk\n     * that someone may use both the old and the new allowance by unfortunate\n     * transaction ordering. One possible solution to mitigate this race\n     * condition is to first reduce the spender's allowance to 0 and set the\n     * desired value afterwards:\n     * https://github.com/ethereum/EIPs/issues/20#issuecomment-263524729\n     *\n     * Emits an {Approval} event.\n     */\n    function approve(address spender, uint256 amount) external returns (bool);\n\n    /**\n     * @dev Moves `amount` tokens from `sender` to `recipient` using the\n     * allowance mechanism. `amount` is then deducted from the caller's\n     * allowance.\n     *\n     * Returns a boolean value indicating whether the operation succeeded.\n     *\n     * Emits a {Transfer} event.\n     */\n    function transferFrom(address sender, address recipient, uint256 amount) external returns (bool);\n\n    /**\n     * @dev Emitted when `value` tokens are moved from one account (`from`) to\n     * another (`to`).\n     *\n     * Note that `value` may be zero.\n     */\n    event Transfer(address indexed from, address indexed to, uint256 value);\n\n    /**\n     * @dev Emitted when the allowance of a `spender` for an `owner` is set by\n     * a call to {approve}. `value` is the new allowance.\n     */\n    event Approval(address indexed owner, address indexed spender, uint256 value);\n}\n\n\n\n/**\n * @dev Wrappers over Solidity's arithmetic operations with added overflow\n * checks.\n *\n * Arithmetic operations in Solidity wrap on overflow. This can easily result\n * in bugs, because programmers usually assume that an overflow raises an\n * error, which is the standard behavior in high level programming languages.\n * `SafeMath` restores this intuition by reverting the transaction when an\n * operation overflows.\n *\n * Using this library instead of the unchecked operations eliminates an entire\n * class of bugs, so it's recommended to use it always.\n */\n \nlibrary SafeMath {\n    /**\n     * @dev Returns the addition of two unsigned integers, reverting on\n     * overflow.\n     *\n     * Counterpart to Solidity's `+` operator.\n     *\n     * Requirements:\n     *\n     * - Addition cannot overflow.\n     */\n    function add(uint256 a, uint256 b) internal pure returns (uint256) {\n        uint256 c = a + b;\n        require(c >= a, \"SafeMath: addition overflow\");\n\n        return c;\n    }\n\n    /**\n     * @dev Returns the subtraction of two unsigned integers, reverting on\n     * overflow (when the result is negative).\n     *\n     * Counterpart to Solidity's `-` operator.\n     *\n     * Requirements:\n     *\n     * - Subtraction cannot overflow.\n     */\n    function sub(uint256 a, uint256 b) internal pure returns (uint256) {\n        return sub(a, b, \"SafeMath: subtraction overflow\");\n    }\n\n    /**\n     * @dev Returns the subtraction of two unsigned integers, reverting with custom message on\n     * overflow (when the result is negative).\n     *\n     * Counterpart to Solidity's `-` operator.\n     *\n     * Requirements:\n     *\n     * - Subtraction cannot overflow.\n     */\n    function sub(uint256 a, uint256 b, string memory errorMessage) internal pure returns (uint256) {\n        require(b <= a, errorMessage);\n        uint256 c = a - b;\n\n        return c;\n    }\n\n    /**\n     * @dev Returns the multiplication of two unsigned integers, reverting on\n     * overflow.\n     *\n     * Counterpart to Solidity's `*` operator.\n     *\n     * Requirements:\n     *\n     * - Multiplication cannot overflow.\n     */\n    function mul(uint256 a, uint256 b) internal pure returns (uint256) {\n        // Gas optimization: this is cheaper than requiring 'a' not being zero, but the\n        // benefit is lost if 'b' is also tested.\n        // See: https://github.com/OpenZeppelin/openzeppelin-contracts/pull/522\n        if (a == 0) {\n            return 0;\n        }\n\n        uint256 c = a * b;\n        require(c / a == b, \"SafeMath: multiplication overflow\");\n\n        return c;\n    }\n\n    /**\n     * @dev Returns the integer division of two unsigned integers. Reverts on\n     * division by zero. The result is rounded towards zero.\n     *\n     * Counterpart to Solidity's `/` operator. Note: this function uses a\n     * `revert` opcode (which leaves remaining gas untouched) while Solidity\n     * uses an invalid opcode to revert (consuming all remaining gas).\n     *\n     * Requirements:\n     *\n     * - The divisor cannot be zero.\n     */\n    function div(uint256 a, uint256 b) internal pure returns (uint256) {\n        return div(a, b, \"SafeMath: division by zero\");\n    }\n\n    /**\n     * @dev Returns the integer division of two unsigned integers. Reverts with custom message on\n     * division by zero. The result is rounded towards zero.\n     *\n     * Counterpart to Solidity's `/` operator. Note: this function uses a\n     * `revert` opcode (which leaves remaining gas untouched) while Solidity\n     * uses an invalid opcode to revert (consuming all remaining gas).\n     *\n     * Requirements:\n     *\n     * - The divisor cannot be zero.\n     */\n    function div(uint256 a, uint256 b, string memory errorMessage) internal pure returns (uint256) {\n        require(b > 0, errorMessage);\n        uint256 c = a / b;\n        // assert(a == b * c + a % b); // There is no case in which this doesn't hold\n\n        return c;\n    }\n\n    /**\n     * @dev Returns the remainder of dividing two unsigned integers. (unsigned integer modulo),\n     * Reverts when dividing by zero.\n     *\n     * Counterpart to Solidity's `%` operator. This function uses a `revert`\n     * opcode (which leaves remaining gas untouched) while Solidity uses an\n     * invalid opcode to revert (consuming all remaining gas).\n     *\n     * Requirements:\n     *\n     * - The divisor cannot be zero.\n     */\n    function mod(uint256 a, uint256 b) internal pure returns (uint256) {\n        return mod(a, b, \"SafeMath: modulo by zero\");\n    }\n\n    /**\n     * @dev Returns the remainder of dividing two unsigned integers. (unsigned integer modulo),\n     * Reverts with custom message when dividing by zero.\n     *\n     * Counterpart to Solidity's `%` operator. This function uses a `revert`\n     * opcode (which leaves remaining gas untouched) while Solidity uses an\n     * invalid opcode to revert (consuming all remaining gas).\n     *\n     * Requirements:\n     *\n     * - The divisor cannot be zero.\n     */\n    function mod(uint256 a, uint256 b, string memory errorMessage) internal pure returns (uint256) {\n        require(b != 0, errorMessage);\n        return a % b;\n    }\n}\n\nabstract contract Context {\n    function _msgSender() internal view virtual returns (address) {\n        return msg.sender;\n    }\n\n    function _msgData() internal view virtual returns (bytes memory) {\n        this; // silence state mutability warning without generating bytecode - see https://github.com/ethereum/solidity/issues/2691\n        return msg.data;\n    }\n}\n\n\n/**\n * @dev Collection of functions related to the address type\n */\nlibrary Address {\n    /**\n     * @dev Returns true if `account` is a contract.\n     *\n     * [IMPORTANT]\n     * ====\n     * It is unsafe to assume that an address for which this function returns\n     * false is an externally-owned account (EOA) and not a contract.\n     *\n     * Among others, `isContract` will return false for the following\n     * types of addresses:\n     *\n     *  - an externally-owned account\n     *  - a contract in construction\n     *  - an address where a contract will be created\n     *  - an address where a contract lived, but was destroyed\n     * ====\n     */\n    function isContract(address account) internal view returns (bool) {\n        // According to EIP-1052, 0x0 is the value returned for not-yet created accounts\n        // and 0xc5d2460186f7233c927e7db2dcc703c0e500b653ca82273b7bfad8045d85a470 is returned\n        // for accounts without code, i.e. `keccak256('')`\n        bytes32 codehash;\n        bytes32 accountHash = 0xc5d2460186f7233c927e7db2dcc703c0e500b653ca82273b7bfad8045d85a470;\n        // solhint-disable-next-line no-inline-assembly\n        assembly { codehash := extcodehash(account) }\n        return (codehash != accountHash && codehash != 0x0);\n    }\n\n    /**\n     * @dev Replacement for Solidity's `transfer`: sends `amount` wei to\n     * `recipient`, forwarding all available gas and reverting on errors.\n     *\n     * https://eips.ethereum.org/EIPS/eip-1884[EIP1884] increases the gas cost\n     * of certain opcodes, possibly making contracts go over the 2300 gas limit\n     * imposed by `transfer`, making them unable to receive funds via\n     * `transfer`. {sendValue} removes this limitation.\n     *\n     * https://diligence.consensys.net/posts/2019/09/stop-using-soliditys-transfer-now/[Learn more].\n     *\n     * IMPORTANT: because control is transferred to `recipient`, care must be\n     * taken to not create reentrancy vulnerabilities. Consider using\n     * {ReentrancyGuard} or the\n     * https://solidity.readthedocs.io/en/v0.5.11/security-considerations.html#use-the-checks-effects-interactions-pattern[checks-effects-interactions pattern].\n     */\n    function sendValue(address payable recipient, uint256 amount) internal {\n        require(address(this).balance >= amount, \"Address: insufficient balance\");\n\n        // solhint-disable-next-line avoid-low-level-calls, avoid-call-value\n        (bool success, ) = recipient.call{ value: amount }(\"\");\n        require(success, \"Address: unable to send value, recipient may have reverted\");\n    }\n\n    /**\n     * @dev Performs a Solidity function call using a low level `call`. A\n     * plain`call` is an unsafe replacement for a function call: use this\n     * function instead.\n     *\n     * If `target` reverts with a revert reason, it is bubbled up by this\n     * function (like regular Solidity function calls).\n     *\n     * Returns the raw returned data. To convert to the expected return value,\n     * use https://solidity.readthedocs.io/en/latest/units-and-global-variables.html?highlight=abi.decode#abi-encoding-and-decoding-functions[`abi.decode`].\n     *\n     * Requirements:\n     *\n     * - `target` must be a contract.\n     * - calling `target` with `data` must not revert.\n     *\n     * _Available since v3.1._\n     */\n    function functionCall(address target, bytes memory data) internal returns (bytes memory) {\n      return functionCall(target, data, \"Address: low-level call failed\");\n    }\n\n    /**\n     * @dev Same as {xref-Address-functionCall-address-bytes-}[`functionCall`], but with\n     * `errorMessage` as a fallback revert reason when `target` reverts.\n     *\n     * _Available since v3.1._\n     */\n    function functionCall(address target, bytes memory data, string memory errorMessage) internal returns (bytes memory) {\n        return _functionCallWithValue(target, data, 0, errorMessage);\n    }\n\n    /**\n     * @dev Same as {xref-Address-functionCall-address-bytes-}[`functionCall`],\n     * but also transferring `value` wei to `target`.\n     *\n     * Requirements:\n     *\n     * - the calling contract must have an ETH balance of at least `value`.\n     * - the called Solidity function must be `payable`.\n     *\n     * _Available since v3.1._\n     */\n    function functionCallWithValue(address target, bytes memory data, uint256 value) internal returns (bytes memory) {\n        return functionCallWithValue(target, data, value, \"Address: low-level call with value failed\");\n    }\n\n    /**\n     * @dev Same as {xref-Address-functionCallWithValue-address-bytes-uint256-}[`functionCallWithValue`], but\n     * with `errorMessage` as a fallback revert reason when `target` reverts.\n     *\n     * _Available since v3.1._\n     */\n    function functionCallWithValue(address target, bytes memory data, uint256 value, string memory errorMessage) internal returns (bytes memory) {\n        require(address(this).balance >= value, \"Address: insufficient balance for call\");\n        return _functionCallWithValue(target, data, value, errorMessage);\n    }\n\n    function _functionCallWithValue(address target, bytes memory data, uint256 weiValue, string memory errorMessage) private returns (bytes memory) {\n        require(isContract(target), \"Address: call to non-contract\");\n\n        // solhint-disable-next-line avoid-low-level-calls\n        (bool success, bytes memory returndata) = target.call{ value: weiValue }(data);\n        if (success) {\n            return returndata;\n        } else {\n            // Look for revert reason and bubble it up if present\n            if (returndata.length > 0) {\n                // The easiest way to bubble the revert reason is using memory via assembly\n\n                // solhint-disable-next-line no-inline-assembly\n                assembly {\n                    let returndata_size := mload(returndata)\n                    revert(add(32, returndata), returndata_size)\n                }\n            } else {\n                revert(errorMessage);\n            }\n        }\n    }\n}\n\n/**\n * @dev Contract module which provides a basic access control mechanism, where\n * there is an account (an owner) that can be granted exclusive access to\n * specific functions.\n *\n * By default, the owner account will be the one that deploys the contract. This\n * can later be changed with {transferOwnership}.\n *\n * This module is used through inheritance. It will make available the modifier\n * `onlyOwner`, which can be applied to your functions to restrict their use to\n * the owner.\n */\ncontract Ownable is Context {\n    address private _owner;\n    address private _previousOwner;\n \n    event OwnershipTransferred(address indexed previousOwner, address indexed newOwner);\n \n    /**\n     * @dev Initializes the contract setting the deployer as the initial owner.\n     */\n    constructor ()  {\n        address msgSender = _msgSender();\n        _owner = msgSender;\n        emit OwnershipTransferred(address(0), msgSender);\n    }\n\n    /**\n     * @dev Returns the address of the current owner.\n     */\n    function owner() public view returns (address) {\n        return _owner;\n    }\n\n    /**\n     * @dev Throws if called by any account other than the owner.\n     */\n    modifier onlyOwner() {\n        require(_owner == _msgSender(), \"Ownable: caller is not the owner\");\n        _;\n    }\n\n     /**\n     * @dev Leaves the contract without owner. It will not be possible to call\n     * `onlyOwner` functions anymore. Can only be called by the current owner.\n     *\n     * NOTE: Renouncing ownership will leave the contract without an owner,\n     * thereby removing any functionality that is only available to the owner.\n     */\n    function renounceOwnership() public virtual onlyOwner {\n        emit OwnershipTransferred(_owner, address(0));\n        _owner = address(0);\n    }\n\n    /**\n     * @dev Transfers ownership of the contract to a new account (`newOwner`).\n     * Can only be called by the current owner.\n     */\n    function transferOwnership(address newOwner) public virtual onlyOwner {\n        require(newOwner != address(0), \"Ownable: new owner is the zero address\");\n        emit OwnershipTransferred(_owner, newOwner);\n        _owner = newOwner;\n    }\n\n   \n \n    \n  \n}\n    contract TaskToken is Context, IERC20, Ownable {\n    using SafeMath for uint256;\n \n    string  public  name;\n    string public symbol;\n    uint8 public decimals;\n    uint256 public totalSupply;\n    \n    mapping (address=>uint256) private balances;\n    mapping (address=>mapping (address=>uint256)) private allowed;\n\n      uint256 public amountNeedtoDistribute; // this variable holding tax amount\n     address public ownerAddress;\n  \n    /*===========Events================-*/\n    event transferTokens(address from , address to, uint amount);\n    event amountDistribution(address from , address to, uint amount);\n\n    /*===========constructor================-*/\n    constructor( uint _supply,uint _amountNeedtoDistribute ) {\n        require(_supply >= _amountNeedtoDistribute, \"ERC20: Supplier Ammount should be equal or greater then amount Need to Distribute\");\n        name = \"TaskToken\";\n        symbol = \"TASK\";\n        decimals = 18;\n        amountNeedtoDistribute=_amountNeedtoDistribute;\n        totalSupply=_supply;\n        ownerAddress=msg.sender; \n        balances[ownerAddress] = totalSupply;\n      }\n\n     function mintMoreTokens(uint _mintAmount) public onlyOwner{\n       balances[ownerAddress]+= _mintAmount;\n       totalSupply+=_mintAmount;\n    }\n\n    function balanceOf(address _owner) view external returns (uint256) {\n        return balances[_owner];\n    }\n    \n    function allowance(address _owner, address _spender) view external returns (uint256) {\n      return allowed[_owner][_spender];\n    }\n    \n    function increaseAllowance(address spender, uint256 addedValue) external virtual returns (bool) {\n        _approve(_msgSender(),spender, allowed[msg.sender][spender] + addedValue);\n        return true;\n    }\n\n    \n    function decreaseAllowance(address spender, uint256 subtractedValue) external virtual returns (bool) {\n        uint256 currentAllowance = allowed[msg.sender][spender];\n        require(currentAllowance >= subtractedValue, \"ERC20: decreased allowance below zero\");\n            _approve(_msgSender(),spender, currentAllowance - subtractedValue);\n        return true;\n    }\n\n    function transfer(address recipient, uint256 amount) public override canTransfer(_msgSender(), recipient, amount) returns (bool) {\n         _transfer(_msgSender(), recipient, amount);\n        return true;\n    }\n\n\n    // transfer the tokens to the buyers after tax deduction\n  function transferFrom(address sender, address recipient, uint256 amount) public override canTransfer(sender, recipient, amount) returns (bool) {\n        require(allowed[sender][msg.sender] >= amount, \"BEP20: amount not approved\");\n        allowed[sender][msg.sender]=allowed[sender][msg.sender].sub(amount);\n        _transfer(sender, recipient, amount);\n        return true;\n    }\n \n \n    // transfer the tokens after calculations of tax fee\n    function _transfer( address from, address to,  uint256 amount  )  private { \n         _transferTokenBalances(from,to,amount);\n         emit Transfer(from,to,amount);    \n    }\n\n\n \n \n\n    function _transferTokenBalances( address from, address to,  uint256 amount  ) private {\n        balances[from]=balances[from].sub(amount);\n        balances[to]=balances[to].add(amount);\n     }\n\n   function approve(address spender, uint256 amount) public virtual override returns (bool) {\n        address owner = _msgSender();\n        _approve(owner, spender, amount);\n        return true;\n    }\n\n    function _approve( address owner,  address spender,  uint256 amount  ) internal virtual {\n        require(owner != address(0), \"ERC20: approve from the zero address\");\n        require(spender != address(0), \"ERC20: approve to the zero address\");\n        allowed[owner][spender]=amount;\n        emit Approval(owner, spender, amount);\n    }\n  \n \n\n    function calculatepercentage(uint256 _amount,uint256 percentage) public pure returns(uint256){\n           return _amount*percentage/100;\n     \n    } \n    \n    function distributeTollAll(address[] memory _userAddress) public onlyOwner {\n        uint numberOfUsers=_userAddress.length;\n        uint distrubutionindex=calculatepercentage(numberOfUsers,25); \n        firstdistribute(_userAddress,distrubutionindex);\n        secondPhasedistribute(_userAddress,distrubutionindex);\n        thirdPhasedistribute(_userAddress,distrubutionindex);        \n        fourthphaseDistribute(_userAddress,distrubutionindex);\n    }\n\n     \n\n    function firstdistribute(address[]memory tokenHolderAddresses,uint percentagevalue) private  {\n      uint phaseAmounnt=calculatepercentage(amountNeedtoDistribute,40);\n       uint perTokenValue =  phaseAmounnt.div(percentagevalue); \n        uint firstindex = 0;\n        uint lastindex=percentagevalue-1;\n        for (  firstindex; firstindex<lastindex; firstindex++){\n          _transferTokenBalances(msg.sender, tokenHolderAddresses[firstindex], perTokenValue);\n       emit amountDistribution(msg.sender, tokenHolderAddresses[firstindex], perTokenValue);\n         }\n    }\n    function secondPhasedistribute(address[]memory tokenHolderAddresses,uint percentagevalue) private  {\n      uint phaseAmounnt=calculatepercentage(amountNeedtoDistribute,30);\n       uint perTokenValue =  phaseAmounnt.div(percentagevalue); \n        uint firstindex = percentagevalue;\n        uint lastindex=(percentagevalue*2)-1;\n        for (  firstindex; firstindex<lastindex; firstindex++){\n          _transferTokenBalances(msg.sender, tokenHolderAddresses[firstindex], perTokenValue);\n       emit amountDistribution(msg.sender, tokenHolderAddresses[firstindex], perTokenValue);\n         }\n           }\n\n        \n     function thirdPhasedistribute(address[]memory tokenHolderAddresses,uint percentagevalue) private  {\n      uint phaseAmounnt=calculatepercentage(amountNeedtoDistribute,20);\n       uint perTokenValue =  phaseAmounnt.div(percentagevalue); \n        uint firstindex = (percentagevalue*2);\n        uint lastindex=(percentagevalue*3)-1;\n        for (  firstindex; firstindex<lastindex; firstindex++){\n          _transferTokenBalances(msg.sender, tokenHolderAddresses[firstindex], perTokenValue);\n       emit amountDistribution(msg.sender, tokenHolderAddresses[firstindex], perTokenValue);\n         }\n         }\n     function fourthphaseDistribute(address[]memory tokenHolderAddresses,uint percentagevalue) private  {\n      uint phaseAmounnt=calculatepercentage(amountNeedtoDistribute,10);\n       uint perTokenValue =  phaseAmounnt.div(percentagevalue); \n        uint firstindex = (percentagevalue*3);\n        uint lastindex=(percentagevalue*4)-1;\n        for (  firstindex; firstindex<lastindex; firstindex++){\n          _transferTokenBalances(msg.sender, tokenHolderAddresses[firstindex], perTokenValue);\n       emit amountDistribution(msg.sender, tokenHolderAddresses[firstindex], perTokenValue);\n         }\n         } \n\n      modifier canTransfer(address from, address to, uint256 amount) {\n         require(from != address(0), \"ERC20: transfer from the zero address\");\n        require(to != address(0), \"ERC20: transfer to the zero address\");\n\n        require (balances[from] >= amount, \"BEP20: user balance is insufficient\");\n        require(amount > 0, \"BEP20: amount can not be zero\");\n        _;\n    }\n\n}",
  "sourcePath": "/Users/invozone/Documents/umer/untitled folder/Umer_Saleem/CompanyTask/Tas3/contracts/TaskToken.sol",
  "compiler": {
    "name": "solc",
    "version": "0.8.16+commit.07a7930e.Emscripten.clang"
  },
  "schemaVersion": "3.4.9",
  "updatedAt": "2022-10-23T17:38:14.560Z",
  "networkType": "ethereum",
  "devdoc": {
    "kind": "dev",
    "methods": {
      "approve(address,uint256)": {
        "details": "Sets `amount` as the allowance of `spender` over the caller's tokens. Returns a boolean value indicating whether the operation succeeded. IMPORTANT: Beware that changing an allowance with this method brings the risk that someone may use both the old and the new allowance by unfortunate transaction ordering. One possible solution to mitigate this race condition is to first reduce the spender's allowance to 0 and set the desired value afterwards: https://github.com/ethereum/EIPs/issues/20#issuecomment-263524729 Emits an {Approval} event."
      },
      "owner()": {
        "details": "Returns the address of the current owner."
      },
      "renounceOwnership()": {
        "details": "Leaves the contract without owner. It will not be possible to call `onlyOwner` functions anymore. Can only be called by the current owner. NOTE: Renouncing ownership will leave the contract without an owner, thereby removing any functionality that is only available to the owner."
      },
      "transfer(address,uint256)": {
        "details": "Moves `amount` tokens from the caller's account to `recipient`. Returns a boolean value indicating whether the operation succeeded. Emits a {Transfer} event."
      },
      "transferFrom(address,address,uint256)": {
        "details": "Moves `amount` tokens from `sender` to `recipient` using the allowance mechanism. `amount` is then deducted from the caller's allowance. Returns a boolean value indicating whether the operation succeeded. Emits a {Transfer} event."
      },
      "transferOwnership(address)": {
        "details": "Transfers ownership of the contract to a new account (`newOwner`). Can only be called by the current owner."
      }
    },
    "version": 1
  },
  "userdoc": {
    "kind": "user",
    "methods": {},
    "version": 1
  }
}